{
  "_format": "hh-sol-artifact-1",
  "contractName": "LicenseNFT",
  "sourceName": "contracts/LicenseNFT.sol",
  "abi": [
    {
      "inputs": [
        {
          "internalType": "address",
          "name": "initialOwner",
          "type": "address"
        }
      ],
      "stateMutability": "nonpayable",
      "type": "constructor"
    },
    {
      "inputs": [
        {
          "internalType": "uint256",
          "name": "numerator",
          "type": "uint256"
        },
        {
          "internalType": "uint256",
          "name": "denominator",
          "type": "uint256"
        }
      ],
      "name": "ERC2981InvalidDefaultRoyalty",
      "type": "error"
    },
    {
      "inputs": [
        {
          "internalType": "address",
          "name": "receiver",
          "type": "address"
        }
      ],
      "name": "ERC2981InvalidDefaultRoyaltyReceiver",
      "type": "error"
    },
    {
      "inputs": [
        {
          "internalType": "uint256",
          "name": "tokenId",
          "type": "uint256"
        },
        {
          "internalType": "uint256",
          "name": "numerator",
          "type": "uint256"
        },
        {
          "internalType": "uint256",
          "name": "denominator",
          "type": "uint256"
        }
      ],
      "name": "ERC2981InvalidTokenRoyalty",
      "type": "error"
    },
    {
      "inputs": [
        {
          "internalType": "uint256",
          "name": "tokenId",
          "type": "uint256"
        },
        {
          "internalType": "address",
          "name": "receiver",
          "type": "address"
        }
      ],
      "name": "ERC2981InvalidTokenRoyaltyReceiver",
      "type": "error"
    },
    {
      "inputs": [
        {
          "internalType": "address",
          "name": "sender",
          "type": "address"
        },
        {
          "internalType": "uint256",
          "name": "tokenId",
          "type": "uint256"
        },
        {
          "internalType": "address",
          "name": "owner",
          "type": "address"
        }
      ],
      "name": "ERC721IncorrectOwner",
      "type": "error"
    },
    {
      "inputs": [
        {
          "internalType": "address",
          "name": "operator",
          "type": "address"
        },
        {
          "internalType": "uint256",
          "name": "tokenId",
          "type": "uint256"
        }
      ],
      "name": "ERC721InsufficientApproval",
      "type": "error"
    },
    {
      "inputs": [
        {
          "internalType": "address",
          "name": "approver",
          "type": "address"
        }
      ],
      "name": "ERC721InvalidApprover",
      "type": "error"
    },
    {
      "inputs": [
        {
          "internalType": "address",
          "name": "operator",
          "type": "address"
        }
      ],
      "name": "ERC721InvalidOperator",
      "type": "error"
    },
    {
      "inputs": [
        {
          "internalType": "address",
          "name": "owner",
          "type": "address"
        }
      ],
      "name": "ERC721InvalidOwner",
      "type": "error"
    },
    {
      "inputs": [
        {
          "internalType": "address",
          "name": "receiver",
          "type": "address"
        }
      ],
      "name": "ERC721InvalidReceiver",
      "type": "error"
    },
    {
      "inputs": [
        {
          "internalType": "address",
          "name": "sender",
          "type": "address"
        }
      ],
      "name": "ERC721InvalidSender",
      "type": "error"
    },
    {
      "inputs": [
        {
          "internalType": "uint256",
          "name": "tokenId",
          "type": "uint256"
        }
      ],
      "name": "ERC721NonexistentToken",
      "type": "error"
    },
    {
      "inputs": [
        {
          "internalType": "address",
          "name": "owner",
          "type": "address"
        }
      ],
      "name": "OwnableInvalidOwner",
      "type": "error"
    },
    {
      "inputs": [
        {
          "internalType": "address",
          "name": "account",
          "type": "address"
        }
      ],
      "name": "OwnableUnauthorizedAccount",
      "type": "error"
    },
    {
      "anonymous": false,
      "inputs": [
        {
          "indexed": true,
          "internalType": "address",
          "name": "owner",
          "type": "address"
        },
        {
          "indexed": true,
          "internalType": "address",
          "name": "approved",
          "type": "address"
        },
        {
          "indexed": true,
          "internalType": "uint256",
          "name": "tokenId",
          "type": "uint256"
        }
      ],
      "name": "Approval",
      "type": "event"
    },
    {
      "anonymous": false,
      "inputs": [
        {
          "indexed": true,
          "internalType": "address",
          "name": "owner",
          "type": "address"
        },
        {
          "indexed": true,
          "internalType": "address",
          "name": "operator",
          "type": "address"
        },
        {
          "indexed": false,
          "internalType": "bool",
          "name": "approved",
          "type": "bool"
        }
      ],
      "name": "ApprovalForAll",
      "type": "event"
    },
    {
      "anonymous": false,
      "inputs": [
        {
          "indexed": true,
          "internalType": "uint256",
          "name": "tokenId",
          "type": "uint256"
        },
        {
          "indexed": true,
          "internalType": "address",
          "name": "to",
          "type": "address"
        },
        {
          "indexed": true,
          "internalType": "uint256",
          "name": "sourceLicenseRequestId",
          "type": "uint256"
        }
      ],
      "name": "LicenseMinted",
      "type": "event"
    },
    {
      "anonymous": false,
      "inputs": [
        {
          "indexed": true,
          "internalType": "address",
          "name": "previousOwner",
          "type": "address"
        },
        {
          "indexed": true,
          "internalType": "address",
          "name": "newOwner",
          "type": "address"
        }
      ],
      "name": "OwnershipTransferred",
      "type": "event"
    },
    {
      "anonymous": false,
      "inputs": [
        {
          "indexed": true,
          "internalType": "uint256",
          "name": "tokenId",
          "type": "uint256"
        },
        {
          "indexed": true,
          "internalType": "address",
          "name": "from",
          "type": "address"
        },
        {
          "indexed": true,
          "internalType": "address",
          "name": "to",
          "type": "address"
        },
        {
          "indexed": false,
          "internalType": "uint256",
          "name": "price",
          "type": "uint256"
        }
      ],
      "name": "Sublicensed",
      "type": "event"
    },
    {
      "anonymous": false,
      "inputs": [
        {
          "indexed": true,
          "internalType": "address",
          "name": "from",
          "type": "address"
        },
        {
          "indexed": true,
          "internalType": "address",
          "name": "to",
          "type": "address"
        },
        {
          "indexed": true,
          "internalType": "uint256",
          "name": "tokenId",
          "type": "uint256"
        }
      ],
      "name": "Transfer",
      "type": "event"
    },
    {
      "inputs": [
        {
          "internalType": "address",
          "name": "to",
          "type": "address"
        },
        {
          "internalType": "uint256",
          "name": "tokenId",
          "type": "uint256"
        }
      ],
      "name": "approve",
      "outputs": [],
      "stateMutability": "nonpayable",
      "type": "function"
    },
    {
      "inputs": [
        {
          "internalType": "address",
          "name": "owner",
          "type": "address"
        }
      ],
      "name": "balanceOf",
      "outputs": [
        {
          "internalType": "uint256",
          "name": "",
          "type": "uint256"
        }
      ],
      "stateMutability": "view",
      "type": "function"
    },
    {
      "inputs": [
        {
          "internalType": "uint256",
          "name": "tokenId",
          "type": "uint256"
        }
      ],
      "name": "getApproved",
      "outputs": [
        {
          "internalType": "address",
          "name": "",
          "type": "address"
        }
      ],
      "stateMutability": "view",
      "type": "function"
    },
    {
      "inputs": [
        {
          "internalType": "address",
          "name": "owner",
          "type": "address"
        },
        {
          "internalType": "address",
          "name": "operator",
          "type": "address"
        }
      ],
      "name": "isApprovedForAll",
      "outputs": [
        {
          "internalType": "bool",
          "name": "",
          "type": "bool"
        }
      ],
      "stateMutability": "view",
      "type": "function"
    },
    {
      "inputs": [
        {
          "internalType": "address",
          "name": "to",
          "type": "address"
        },
        {
          "internalType": "uint256",
          "name": "_sourceLicenseRequestId",
          "type": "uint256"
        },
        {
          "internalType": "address",
          "name": "studentAddress",
          "type": "address"
        },
        {
          "internalType": "address",
          "name": "universityAddress",
          "type": "address"
        },
        {
          "internalType": "address",
          "name": "platformAddress",
          "type": "address"
        },
        {
          "internalType": "uint16",
          "name": "studentBps",
          "type": "uint16"
        },
        {
          "internalType": "uint16",
          "name": "universityBps",
          "type": "uint16"
        },
        {
          "internalType": "uint16",
          "name": "platformBps",
          "type": "uint16"
        }
      ],
      "name": "mint",
      "outputs": [
        {
          "internalType": "uint256",
          "name": "tokenId",
          "type": "uint256"
        }
      ],
      "stateMutability": "nonpayable",
      "type": "function"
    },
    {
      "inputs": [],
      "name": "name",
      "outputs": [
        {
          "internalType": "string",
          "name": "",
          "type": "string"
        }
      ],
      "stateMutability": "view",
      "type": "function"
    },
    {
      "inputs": [],
      "name": "owner",
      "outputs": [
        {
          "internalType": "address",
          "name": "",
          "type": "address"
        }
      ],
      "stateMutability": "view",
      "type": "function"
    },
    {
      "inputs": [
        {
          "internalType": "uint256",
          "name": "tokenId",
          "type": "uint256"
        }
      ],
      "name": "ownerOf",
      "outputs": [
        {
          "internalType": "address",
          "name": "",
          "type": "address"
        }
      ],
      "stateMutability": "view",
      "type": "function"
    },
    {
      "inputs": [],
      "name": "renounceOwnership",
      "outputs": [],
      "stateMutability": "nonpayable",
      "type": "function"
    },
    {
      "inputs": [
        {
          "internalType": "uint256",
          "name": "tokenId",
          "type": "uint256"
        },
        {
          "internalType": "uint256",
          "name": "salePrice",
          "type": "uint256"
        }
      ],
      "name": "royaltyInfo",
      "outputs": [
        {
          "internalType": "address",
          "name": "receiver",
          "type": "address"
        },
        {
          "internalType": "uint256",
          "name": "amount",
          "type": "uint256"
        }
      ],
      "stateMutability": "view",
      "type": "function"
    },
    {
      "inputs": [
        {
          "internalType": "uint256",
          "name": "",
          "type": "uint256"
        }
      ],
      "name": "royaltySplits",
      "outputs": [
        {
          "internalType": "address",
          "name": "studentAddress",
          "type": "address"
        },
        {
          "internalType": "address",
          "name": "universityAddress",
          "type": "address"
        },
        {
          "internalType": "address",
          "name": "platformAddress",
          "type": "address"
        },
        {
          "internalType": "uint16",
          "name": "studentBps",
          "type": "uint16"
        },
        {
          "internalType": "uint16",
          "name": "universityBps",
          "type": "uint16"
        },
        {
          "internalType": "uint16",
          "name": "platformBps",
          "type": "uint16"
        }
      ],
      "stateMutability": "view",
      "type": "function"
    },
    {
      "inputs": [
        {
          "internalType": "address",
          "name": "from",
          "type": "address"
        },
        {
          "internalType": "address",
          "name": "to",
          "type": "address"
        },
        {
          "internalType": "uint256",
          "name": "tokenId",
          "type": "uint256"
        }
      ],
      "name": "safeTransferFrom",
      "outputs": [],
      "stateMutability": "nonpayable",
      "type": "function"
    },
    {
      "inputs": [
        {
          "internalType": "address",
          "name": "from",
          "type": "address"
        },
        {
          "internalType": "address",
          "name": "to",
          "type": "address"
        },
        {
          "internalType": "uint256",
          "name": "tokenId",
          "type": "uint256"
        },
        {
          "internalType": "bytes",
          "name": "data",
          "type": "bytes"
        }
      ],
      "name": "safeTransferFrom",
      "outputs": [],
      "stateMutability": "nonpayable",
      "type": "function"
    },
    {
      "inputs": [
        {
          "internalType": "address",
          "name": "operator",
          "type": "address"
        },
        {
          "internalType": "bool",
          "name": "approved",
          "type": "bool"
        }
      ],
      "name": "setApprovalForAll",
      "outputs": [],
      "stateMutability": "nonpayable",
      "type": "function"
    },
    {
      "inputs": [
        {
          "internalType": "uint256",
          "name": "",
          "type": "uint256"
        }
      ],
      "name": "sourceLicenseRequestId",
      "outputs": [
        {
          "internalType": "uint256",
          "name": "",
          "type": "uint256"
        }
      ],
      "stateMutability": "view",
      "type": "function"
    },
    {
      "inputs": [
        {
          "internalType": "uint256",
          "name": "tokenId",
          "type": "uint256"
        },
        {
          "internalType": "address",
          "name": "to",
          "type": "address"
        }
      ],
      "name": "sublicense",
      "outputs": [],
      "stateMutability": "payable",
      "type": "function"
    },
    {
      "inputs": [
        {
          "internalType": "bytes4",
          "name": "interfaceId",
          "type": "bytes4"
        }
      ],
      "name": "supportsInterface",
      "outputs": [
        {
          "internalType": "bool",
          "name": "",
          "type": "bool"
        }
      ],
      "stateMutability": "view",
      "type": "function"
    },
    {
      "inputs": [],
      "name": "symbol",
      "outputs": [
        {
          "internalType": "string",
          "name": "",
          "type": "string"
        }
      ],
      "stateMutability": "view",
      "type": "function"
    },
    {
      "inputs": [
        {
          "internalType": "uint256",
          "name": "tokenId",
          "type": "uint256"
        }
      ],
      "name": "tokenURI",
      "outputs": [
        {
          "internalType": "string",
          "name": "",
          "type": "string"
        }
      ],
      "stateMutability": "view",
      "type": "function"
    },
    {
      "inputs": [
        {
          "internalType": "address",
          "name": "from",
          "type": "address"
        },
        {
          "internalType": "address",
          "name": "to",
          "type": "address"
        },
        {
          "internalType": "uint256",
          "name": "tokenId",
          "type": "uint256"
        }
      ],
      "name": "transferFrom",
      "outputs": [],
      "stateMutability": "nonpayable",
      "type": "function"
    },
    {
      "inputs": [
        {
          "internalType": "address",
          "name": "newOwner",
          "type": "address"
        }
      ],
      "name": "transferOwnership",
      "outputs": [],
      "stateMutability": "nonpayable",
      "type": "function"
    }
  ],
  "bytecode": "0x6080604052600160095534801562000015575f80fd5b50604051620020a6380380620020a6833981016040819052620000389162000134565b8060405180604001604052806012815260200171496e6e6f76436861696e204c6963656e736560701b815250604051806040016040528060038152602001621250d360ea1b815250815f908162000090919062000201565b5060016200009f828262000201565b5050506001600160a01b038116620000d057604051631e4fbdf760e01b81525f600482015260240160405180910390fd5b620000db81620000e3565b5050620002cd565b600880546001600160a01b038381166001600160a01b0319831681179093556040519116919082907f8be0079c531659141344cd1fd0a4f28419497f9722a3daafe3b4186f6b6457e0905f90a35050565b5f6020828403121562000145575f80fd5b81516001600160a01b03811681146200015c575f80fd5b9392505050565b634e487b7160e01b5f52604160045260245ffd5b600181811c908216806200018c57607f821691505b602082108103620001ab57634e487b7160e01b5f52602260045260245ffd5b50919050565b601f821115620001fc57805f5260205f20601f840160051c81016020851015620001d85750805b601f840160051c820191505b81811015620001f9575f8155600101620001e4565b50505b505050565b81516001600160401b038111156200021d576200021d62000163565b62000235816200022e845462000177565b84620001b1565b602080601f8311600181146200026b575f8415620002535750858301515b5f19600386901b1c1916600185901b178555620002c5565b5f85815260208120601f198616915b828110156200029b578886015182559484019460019091019084016200027a565b5085821015620002b957878501515f19600388901b60f8161c191681555b505060018460011b0185555b505050505050565b611dcb80620002db5f395ff3fe608060405260043610610125575f3560e01c806370a08231116100a857806395d89b411161006d57806395d89b41146103dc578063a22cb465146103f0578063b88d4fde1461040f578063c87b56dd1461042e578063e985e9c51461044d578063f2fde38b1461046c575f80fd5b806370a08231146102c9578063715018a6146102e857806384b3d9fd146102fc5780638736b099146103ac5780638da5cb5b146103bf575f80fd5b806323b872dd116100ee57806323b872dd1461020f5780632a55205a1461022e57806342842e0e1461026c5780636352211e1461028b578063682bd8c5146102aa575f80fd5b8062ff64f91461012957806301ffc9a71461016757806306fdde0314610196578063081812fc146101b7578063095ea7b3146101ee575b5f80fd5b348015610134575f80fd5b506101546101433660046118e5565b600b6020525f908152604090205481565b6040519081526020015b60405180910390f35b348015610172575f80fd5b50610186610181366004611911565b61048b565b604051901515815260200161015e565b3480156101a1575f80fd5b506101aa61049b565b60405161015e9190611979565b3480156101c2575f80fd5b506101d66101d13660046118e5565b61052a565b6040516001600160a01b03909116815260200161015e565b3480156101f9575f80fd5b5061020d6102083660046119a6565b610551565b005b34801561021a575f80fd5b5061020d6102293660046119ce565b610560565b348015610239575f80fd5b5061024d610248366004611a07565b6105ee565b604080516001600160a01b03909316835260208301919091520161015e565b348015610277575f80fd5b5061020d6102863660046119ce565b610671565b348015610296575f80fd5b506101d66102a53660046118e5565b610690565b3480156102b5575f80fd5b506101546102c4366004611a38565b61069a565b3480156102d4575f80fd5b506101546102e3366004611ac3565b610908565b3480156102f3575f80fd5b5061020d61094d565b348015610307575f80fd5b506103656103163660046118e5565b600a6020525f90815260409020805460018201546002909201546001600160a01b039182169282169181169061ffff600160a01b8204811691600160b01b8104821691600160c01b9091041686565b604080516001600160a01b0397881681529587166020870152939095169284019290925261ffff9081166060840152908116608083015290911660a082015260c00161015e565b61020d6103ba366004611adc565b610960565b3480156103ca575f80fd5b506008546001600160a01b03166101d6565b3480156103e7575f80fd5b506101aa610e90565b3480156103fb575f80fd5b5061020d61040a366004611b06565b610e9f565b34801561041a575f80fd5b5061020d610429366004611b53565b610eaa565b348015610439575f80fd5b506101aa6104483660046118e5565b610ec2565b348015610458575f80fd5b50610186610467366004611c28565b610f33565b348015610477575f80fd5b5061020d610486366004611ac3565b610f60565b5f61049582610f9d565b92915050565b60605f80546104a990611c50565b80601f01602080910402602001604051908101604052809291908181526020018280546104d590611c50565b80156105205780601f106104f757610100808354040283529160200191610520565b820191905f5260205f20905b81548152906001019060200180831161050357829003601f168201915b5050505050905090565b5f61053482610fc1565b505f828152600460205260409020546001600160a01b0316610495565b61055c828233610ff9565b5050565b6001600160a01b03821661058e57604051633250574960e11b81525f60048201526024015b60405180910390fd5b5f61059a838333611006565b9050836001600160a01b0316816001600160a01b0316146105e8576040516364283d7b60e01b81526001600160a01b0380861660048301526024820184905282166044820152606401610585565b50505050565b5f82815260076020526040812080548291906001600160a01b03811690600160a01b90046001600160601b0316816106415750506006546001600160a01b03811690600160a01b90046001600160601b03165b5f6127106106586001600160601b03841689611c9c565b6106629190611cb3565b92989297509195505050505050565b61068b83838360405180602001604052805f815250610eaa565b505050565b5f61049582610fc1565b5f6106a36110f8565b6001600160a01b038716158015906106c357506001600160a01b03861615155b80156106d757506001600160a01b03851615155b61071e5760405162461bcd60e51b8152602060048201526018602482015277496e6e6f76436861696e3a207a65726f206164647265737360401b6044820152606401610585565b6127108261ffff168461ffff168661ffff1661073a9190611cd2565b6107449190611cd2565b11156107925760405162461bcd60e51b815260206004820152601860248201527f496e6e6f76436861696e3a20627073206f766572666c6f7700000000000000006044820152606401610585565b60098054905f6107a183611ce5565b9190505590506107b18982611125565b6040805160c0810182526001600160a01b03808a168252888116602080840191825289831684860190815261ffff808b16606087018181528b8316608089018181528c851660a08b018181525f8e8152600a8a528d81209c518d54908d166001600160a01b0319918216178e559a5160018e018054918e1691909c1617909a5596516002909b0180549451925197518716600160c01b0261ffff60c01b19988816600160b01b029890981663ffffffff60b01b1993909716600160a01b026001600160b01b03199095169b909a169a909a1792909217919091169290921792909217909455600b9091529390208b90556108c4928492309290916108b59190611cd2565b6108bf9190611cd2565b61113e565b87896001600160a01b0316827f1c4f7e5ec105d4583284909df12eaecb823be2a3bb93c78976f54d04d83ce49260405160405180910390a498975050505050505050565b5f6001600160a01b038216610932576040516322718ad960e21b81525f6004820152602401610585565b506001600160a01b03165f9081526003602052604090205490565b6109556110f8565b61095e5f6111fe565b565b3361096a83610690565b6001600160a01b0316146109d75760405162461bcd60e51b815260206004820152602e60248201527f496e6e6f76436861696e3a206f6e6c792063757272656e7420686f6c6465722060448201526d6d6179207375626c6963656e736560901b6064820152608401610585565b6001600160a01b038116610a285760405162461bcd60e51b8152602060048201526018602482015277496e6e6f76436861696e3a207a65726f206164647265737360401b6044820152606401610585565b5f3411610a775760405162461bcd60e51b815260206004820152601d60248201527f496e6e6f76436861696e3a207072696365206d757374206265203e20300000006044820152606401610585565b5f828152600a60209081526040808320815160c08101835281546001600160a01b03908116825260018301548116948201949094526002909101549283169181019190915261ffff600160a01b8304811660608301819052600160b01b840482166080840152600160c01b9093041660a0820152919061271090610afb9034611c9c565b610b059190611cb3565b90505f612710836080015161ffff1634610b1f9190611c9c565b610b299190611cb3565b90505f6127108460a0015161ffff1634610b439190611c9c565b610b4d9190611cb3565b90505f8183610b5c8634611cfd565b610b669190611cfd565b610b709190611cfd565b905033610b7e81888a61124f565b866001600160a01b0316816001600160a01b0316897ffa1adf4838712a8485e67792404a1ce48b2efeaa01a5dd532f941542a08645f334604051610bc491815260200190565b60405180910390a485516040515f916001600160a01b03169087908381818185875af1925050503d805f8114610c15576040519150601f19603f3d011682016040523d82523d5f602084013e610c1a565b606091505b5050905080610c775760405162461bcd60e51b815260206004820152602360248201527f496e6e6f76436861696e3a2073747564656e74207472616e73666572206661696044820152621b195960ea1b6064820152608401610585565b5f87602001516001600160a01b0316866040515f6040518083038185875af1925050503d805f8114610cc4576040519150601f19603f3d011682016040523d82523d5f602084013e610cc9565b606091505b5050905080610d295760405162461bcd60e51b815260206004820152602660248201527f496e6e6f76436861696e3a20756e6976657273697479207472616e736665722060448201526519985a5b195960d21b6064820152608401610585565b5f88604001516001600160a01b0316866040515f6040518083038185875af1925050503d805f8114610d76576040519150601f19603f3d011682016040523d82523d5f602084013e610d7b565b606091505b5050905080610dd85760405162461bcd60e51b8152602060048201526024808201527f496e6e6f76436861696e3a20706c6174666f726d207472616e736665722066616044820152631a5b195960e21b6064820152608401610585565b5f846001600160a01b0316866040515f6040518083038185875af1925050503d805f8114610e21576040519150601f19603f3d011682016040523d82523d5f602084013e610e26565b606091505b5050905080610e825760405162461bcd60e51b815260206004820152602260248201527f496e6e6f76436861696e3a2073656c6c6572207472616e73666572206661696c604482015261195960f21b6064820152608401610585565b505050505050505050505050565b6060600180546104a990611c50565b61055c3383836112fc565b610eb5848484610560565b6105e833858585856113c3565b6060610ecd82610fc1565b505f610ee360408051602081019091525f815290565b90505f815111610f015760405180602001604052805f815250610f2c565b80610f0b846114eb565b604051602001610f1c929190611d10565b6040516020818303038152906040525b9392505050565b6001600160a01b039182165f90815260056020908152604080832093909416825291909152205460ff1690565b610f686110f8565b6001600160a01b038116610f9157604051631e4fbdf760e01b81525f6004820152602401610585565b610f9a816111fe565b50565b5f6001600160e01b0319821663152a902d60e11b148061049557506104958261157b565b5f818152600260205260408120546001600160a01b03168061049557604051637e27328960e01b815260048101849052602401610585565b61068b83838360016115ca565b5f828152600260205260408120546001600160a01b0390811690831615611032576110328184866116ce565b6001600160a01b0381161561106c5761104d5f855f806115ca565b6001600160a01b0381165f90815260036020526040902080545f190190555b6001600160a01b0385161561109a576001600160a01b0385165f908152600360205260409020805460010190555b5f8481526002602052604080822080546001600160a01b0319166001600160a01b0389811691821790925591518793918516917fddf252ad1be2c89b69c2b068fc378daa952ba7f163c4a11628f55a4df523b3ef91a4949350505050565b6008546001600160a01b0316331461095e5760405163118cdaa760e01b8152336004820152602401610585565b61055c828260405180602001604052805f815250611732565b6127106001600160601b0382168110156111845760405163dfd1fc1b60e01b8152600481018590526001600160601b038316602482015260448101829052606401610585565b6001600160a01b0383166111b457604051634b4f842960e11b8152600481018590525f6024820152604401610585565b506040805180820182526001600160a01b0393841681526001600160601b0392831660208083019182525f968752600790529190942093519051909116600160a01b029116179055565b600880546001600160a01b038381166001600160a01b0319831681179093556040519116919082907f8be0079c531659141344cd1fd0a4f28419497f9722a3daafe3b4186f6b6457e0905f90a35050565b6001600160a01b03821661127857604051633250574960e11b81525f6004820152602401610585565b5f61128483835f611006565b90506001600160a01b0381166112b057604051637e27328960e01b815260048101839052602401610585565b836001600160a01b0316816001600160a01b0316146105e8576040516364283d7b60e01b81526001600160a01b0380861660048301526024820184905282166044820152606401610585565b6001600160a01b0383166113255760405163a9fbf51f60e01b81525f6004820152602401610585565b6001600160a01b03821661135757604051630b61174360e31b81526001600160a01b0383166004820152602401610585565b6001600160a01b038381165f81815260056020908152604080832094871680845294825291829020805460ff191686151590811790915591519182527f17307eab39ab6107e8899845ad3d59bd9653f200f220920489ca2b5937696c31910160405180910390a3505050565b6001600160a01b0383163b156114e457604051630a85bd0160e11b81526001600160a01b0384169063150b7a0290611405908890889087908790600401611d3e565b6020604051808303815f875af192505050801561143f575060408051601f3d908101601f1916820190925261143c91810190611d7a565b60015b6114a6573d80801561146c576040519150601f19603f3d011682016040523d82523d5f602084013e611471565b606091505b5080515f0361149e57604051633250574960e11b81526001600160a01b0385166004820152602401610585565b805160208201fd5b6001600160e01b03198116630a85bd0160e11b146114e257604051633250574960e11b81526001600160a01b0385166004820152602401610585565b505b5050505050565b60605f6114f783611749565b60010190505f8167ffffffffffffffff81111561151657611516611b3f565b6040519080825280601f01601f191660200182016040528015611540576020820181803683370190505b5090508181016020015b5f19016f181899199a1a9b1b9c1cb0b131b232b360811b600a86061a8153600a850494508461154a57509392505050565b5f6001600160e01b031982166380ac58cd60e01b14806115ab57506001600160e01b03198216635b5e139f60e01b145b8061049557506301ffc9a760e01b6001600160e01b0319831614610495565b80806115de57506001600160a01b03821615155b1561169f575f6115ed84610fc1565b90506001600160a01b038316158015906116195750826001600160a01b0316816001600160a01b031614155b801561162c575061162a8184610f33565b155b156116555760405163a9fbf51f60e01b81526001600160a01b0384166004820152602401610585565b811561169d5783856001600160a01b0316826001600160a01b03167f8c5be1e5ebec7d5bd14f71427d1e84f3dd0314c0f7b2291e5b200ac8c7c3b92560405160405180910390a45b505b50505f90815260046020526040902080546001600160a01b0319166001600160a01b0392909216919091179055565b6116d9838383611820565b61068b576001600160a01b03831661170757604051637e27328960e01b815260048101829052602401610585565b60405163177e802f60e01b81526001600160a01b038316600482015260248101829052604401610585565b61173c8383611884565b61068b335f8585856113c3565b5f8072184f03e93ff9f4daa797ed6e38ed64bf6a1f0160401b83106117875772184f03e93ff9f4daa797ed6e38ed64bf6a1f0160401b830492506040015b6d04ee2d6d415b85acef810000000083106117b3576d04ee2d6d415b85acef8100000000830492506020015b662386f26fc1000083106117d157662386f26fc10000830492506010015b6305f5e10083106117e9576305f5e100830492506008015b61271083106117fd57612710830492506004015b6064831061180f576064830492506002015b600a83106104955760010192915050565b5f6001600160a01b0383161580159061187c5750826001600160a01b0316846001600160a01b0316148061185957506118598484610f33565b8061187c57505f828152600460205260409020546001600160a01b038481169116145b949350505050565b6001600160a01b0382166118ad57604051633250574960e11b81525f6004820152602401610585565b5f6118b983835f611006565b90506001600160a01b0381161561068b576040516339e3563760e11b81525f6004820152602401610585565b5f602082840312156118f5575f80fd5b5035919050565b6001600160e01b031981168114610f9a575f80fd5b5f60208284031215611921575f80fd5b8135610f2c816118fc565b5f5b8381101561194657818101518382015260200161192e565b50505f910152565b5f815180845261196581602086016020860161192c565b601f01601f19169290920160200192915050565b602081525f610f2c602083018461194e565b80356001600160a01b03811681146119a1575f80fd5b919050565b5f80604083850312156119b7575f80fd5b6119c08361198b565b946020939093013593505050565b5f805f606084860312156119e0575f80fd5b6119e98461198b565b92506119f76020850161198b565b9150604084013590509250925092565b5f8060408385031215611a18575f80fd5b50508035926020909101359150565b803561ffff811681146119a1575f80fd5b5f805f805f805f80610100898b031215611a50575f80fd5b611a598961198b565b975060208901359650611a6e60408a0161198b565b9550611a7c60608a0161198b565b9450611a8a60808a0161198b565b9350611a9860a08a01611a27565b9250611aa660c08a01611a27565b9150611ab460e08a01611a27565b90509295985092959890939650565b5f60208284031215611ad3575f80fd5b610f2c8261198b565b5f8060408385031215611aed575f80fd5b82359150611afd6020840161198b565b90509250929050565b5f8060408385031215611b17575f80fd5b611b208361198b565b915060208301358015158114611b34575f80fd5b809150509250929050565b634e487b7160e01b5f52604160045260245ffd5b5f805f8060808587031215611b66575f80fd5b611b6f8561198b565b9350611b7d6020860161198b565b925060408501359150606085013567ffffffffffffffff80821115611ba0575f80fd5b818701915087601f830112611bb3575f80fd5b813581811115611bc557611bc5611b3f565b604051601f8201601f19908116603f01168101908382118183101715611bed57611bed611b3f565b816040528281528a6020848701011115611c05575f80fd5b826020860160208301375f60208483010152809550505050505092959194509250565b5f8060408385031215611c39575f80fd5b611c428361198b565b9150611afd6020840161198b565b600181811c90821680611c6457607f821691505b602082108103611c8257634e487b7160e01b5f52602260045260245ffd5b50919050565b634e487b7160e01b5f52601160045260245ffd5b808202811582820484141761049557610495611c88565b5f82611ccd57634e487b7160e01b5f52601260045260245ffd5b500490565b8082018082111561049557610495611c88565b5f60018201611cf657611cf6611c88565b5060010190565b8181038181111561049557610495611c88565b5f8351611d2181846020880161192c565b835190830190611d3581836020880161192c565b01949350505050565b6001600160a01b03858116825284166020820152604081018390526080606082018190525f90611d709083018461194e565b9695505050505050565b5f60208284031215611d8a575f80fd5b8151610f2c816118fc56fea26469706673582212209bf99f2f8ff1f139942fd5fbfa0a5f3d97c5c80ebca2631980fdf732adaa713364736f6c63430008180033",
  "linkReferences": {},
  "deployedLinkReferences": {}
}