{
  "_format": "hh-sol-artifact-1",
  "contractName": "LicensingRoyalty",
  "sourceName": "contracts/LicensingRoyalty.sol",
  "abi": [
    {
      "inputs": [
        {
          "internalType": "address",
          "name": "_studentAddress",
          "type": "address"
        },
        {
          "internalType": "address",
          "name": "_universityAddress",
          "type": "address"
        },
        {
          "internalType": "address",
          "name": "_companyAddress",
          "type": "address"
        },
        {
          "internalType": "address",
          "name": "_platformAddress",
          "type": "address"
        },
        {
          "internalType": "uint16",
          "name": "_studentBps",
          "type": "uint16"
        },
        {
          "internalType": "uint16",
          "name": "_universityBps",
          "type": "uint16"
        },
        {
          "internalType": "uint16",
          "name": "_platformBps",
          "type": "uint16"
        },
        {
          "internalType": "uint256",
          "name": "_priceWei",
          "type": "uint256"
        }
      ],
      "stateMutability": "nonpayable",
      "type": "constructor"
    },
    {
      "anonymous": false,
      "inputs": [
        {
          "indexed": true,
          "internalType": "address",
          "name": "from",
          "type": "address"
        },
        {
          "indexed": false,
          "internalType": "uint256",
          "name": "amount",
          "type": "uint256"
        }
      ],
      "name": "Funded",
      "type": "event"
    },
    {
      "anonymous": false,
      "inputs": [
        {
          "indexed": false,
          "internalType": "uint256",
          "name": "studentAmount",
          "type": "uint256"
        },
        {
          "indexed": false,
          "internalType": "uint256",
          "name": "universityAmount",
          "type": "uint256"
        },
        {
          "indexed": false,
          "internalType": "uint256",
          "name": "platformAmount",
          "type": "uint256"
        }
      ],
      "name": "Released",
      "type": "event"
    },
    {
      "inputs": [],
      "name": "companyAddress",
      "outputs": [
        {
          "internalType": "address",
          "name": "",
          "type": "address"
        }
      ],
      "stateMutability": "view",
      "type": "function"
    },
    {
      "inputs": [],
      "name": "fund",
      "outputs": [],
      "stateMutability": "payable",
      "type": "function"
    },
    {
      "inputs": [],
      "name": "funded",
      "outputs": [
        {
          "internalType": "bool",
          "name": "",
          "type": "bool"
        }
      ],
      "stateMutability": "view",
      "type": "function"
    },
    {
      "inputs": [],
      "name": "platformAddress",
      "outputs": [
        {
          "internalType": "address",
          "name": "",
          "type": "address"
        }
      ],
      "stateMutability": "view",
      "type": "function"
    },
    {
      "inputs": [],
      "name": "platformBps",
      "outputs": [
        {
          "internalType": "uint16",
          "name": "",
          "type": "uint16"
        }
      ],
      "stateMutability": "view",
      "type": "function"
    },
    {
      "inputs": [],
      "name": "priceWei",
      "outputs": [
        {
          "internalType": "uint256",
          "name": "",
          "type": "uint256"
        }
      ],
      "stateMutability": "view",
      "type": "function"
    },
    {
      "inputs": [],
      "name": "release",
      "outputs": [],
      "stateMutability": "nonpayable",
      "type": "function"
    },
    {
      "inputs": [],
      "name": "released",
      "outputs": [
        {
          "internalType": "bool",
          "name": "",
          "type": "bool"
        }
      ],
      "stateMutability": "view",
      "type": "function"
    },
    {
      "inputs": [],
      "name": "studentAddress",
      "outputs": [
        {
          "internalType": "address",
          "name": "",
          "type": "address"
        }
      ],
      "stateMutability": "view",
      "type": "function"
    },
    {
      "inputs": [],
      "name": "studentBps",
      "outputs": [
        {
          "internalType": "uint16",
          "name": "",
          "type": "uint16"
        }
      ],
      "stateMutability": "view",
      "type": "function"
    },
    {
      "inputs": [],
      "name": "universityAddress",
      "outputs": [
        {
          "internalType": "address",
          "name": "",
          "type": "address"
        }
      ],
      "stateMutability": "view",
      "type": "function"
    },
    {
      "inputs": [],
      "name": "universityBps",
      "outputs": [
        {
          "internalType": "uint16",
          "name": "",
          "type": "uint16"
        }
      ],
      "stateMutability": "view",
      "type": "function"
    }
  ],
  "bytecode": "0x6101806040523480156200001257600080fd5b5060405162000d7938038062000d7983398101604081905262000035916200020c565b6001600160a01b038816158015906200005657506001600160a01b03871615155b80156200006b57506001600160a01b03861615155b80156200008057506001600160a01b03851615155b620000d25760405162461bcd60e51b815260206004820152601860248201527f496e6e6f76436861696e3a207a65726f2061646472657373000000000000000060448201526064015b60405180910390fd5b61271061ffff83811690620000ed90868116908816620002ab565b620000f99190620002ab565b14620001485760405162461bcd60e51b815260206004820181905260248201527f496e6e6f76436861696e3a20627073206d7573742073756d20746f20313030256044820152606401620000c9565b600081116200019a5760405162461bcd60e51b815260206004820152601d60248201527f496e6e6f76436861696e3a207072696365206d757374206265203e20300000006044820152606401620000c9565b6001600160a01b0397881660805295871660a05293861660c0529190941660e05261ffff938416610100528316610120529091166101405261016052620002d3565b80516001600160a01b0381168114620001f457600080fd5b919050565b805161ffff81168114620001f457600080fd5b600080600080600080600080610100898b0312156200022a57600080fd5b6200023589620001dc565b97506200024560208a01620001dc565b96506200025560408a01620001dc565b95506200026560608a01620001dc565b94506200027560808a01620001f9565b93506200028560a08a01620001f9565b92506200029560c08a01620001f9565b915060e089015190509295985092959890939650565b80820180821115620002cd57634e487b7160e01b600052601160045260246000fd5b92915050565b60805160a05160c05160e05161010051610120516101405161016051610a0262000377600039600081816101d801526108ac0152600061029c01526000818160be01526104c301526000818161019c015261048401526000818161024e01526106f801526000818161010a015281816103d7015261082a0152600081816102d0015261062601526000818161021a015281816103a501526105570152610a026000f3fe6080604052600436106100a75760003560e01c8063b7ec208611610064578063b7ec2086146101c6578063b8f31a8114610208578063dbe55e561461023c578063f3a504f214610270578063f76835e61461028a578063fdd7e0b9146102be57600080fd5b806315d19678146100ac57806353e1ead9146100f857806386d1a69f14610144578063961325211461015b578063b2cf43ee1461018a578063b60d4288146101be575b600080fd5b3480156100b857600080fd5b506100e07f000000000000000000000000000000000000000000000000000000000000000081565b60405161ffff90911681526020015b60405180910390f35b34801561010457600080fd5b5061012c7f000000000000000000000000000000000000000000000000000000000000000081565b6040516001600160a01b0390911681526020016100ef565b34801561015057600080fd5b506101596102f2565b005b34801561016757600080fd5b5060005461017a90610100900460ff1681565b60405190151581526020016100ef565b34801561019657600080fd5b506100e07f000000000000000000000000000000000000000000000000000000000000000081565b6101596107cc565b3480156101d257600080fd5b506101fa7f000000000000000000000000000000000000000000000000000000000000000081565b6040519081526020016100ef565b34801561021457600080fd5b5061012c7f000000000000000000000000000000000000000000000000000000000000000081565b34801561024857600080fd5b5061012c7f000000000000000000000000000000000000000000000000000000000000000081565b34801561027c57600080fd5b5060005461017a9060ff1681565b34801561029657600080fd5b506100e07f000000000000000000000000000000000000000000000000000000000000000081565b3480156102ca57600080fd5b5061012c7f000000000000000000000000000000000000000000000000000000000000000081565b60005460ff166103425760405162461bcd60e51b8152602060048201526016602482015275125b9b9bdd90da185a5b8e881b9bdd08199d5b99195960521b60448201526064015b60405180910390fd5b600054610100900460ff161561039a5760405162461bcd60e51b815260206004820152601c60248201527f496e6e6f76436861696e3a20616c72656164792072656c6561736564000000006044820152606401610339565b336001600160a01b037f00000000000000000000000000000000000000000000000000000000000000001614806103f95750336001600160a01b037f000000000000000000000000000000000000000000000000000000000000000016145b61046b5760405162461bcd60e51b815260206004820152603760248201527f496e6e6f76436861696e3a206f6e6c792073747564656e74206f7220636f6d7060448201527f616e79206d617920747269676765722072656c656173650000000000000000006064820152608401610339565b6000805461ff00191661010017815547906127106104ad7f000000000000000000000000000000000000000000000000000000000000000061ffff168461097a565b6104b79190610997565b905060006127106104ec7f000000000000000000000000000000000000000000000000000000000000000061ffff168561097a565b6104f69190610997565b905060008161050584866109b9565b61050f91906109b9565b60408051858152602081018590529081018290529091507ff854feef4c325cc8fcfad1a693b62c4383c8d228c4ca0bc52f9e06095338a5f19060600160405180910390a160007f00000000000000000000000000000000000000000000000000000000000000006001600160a01b03168460405160006040518083038185875af1925050503d80600081146105c0576040519150601f19603f3d011682016040523d82523d6000602084013e6105c5565b606091505b50509050806106225760405162461bcd60e51b815260206004820152602360248201527f496e6e6f76436861696e3a2073747564656e74207472616e73666572206661696044820152621b195960ea1b6064820152608401610339565b60007f00000000000000000000000000000000000000000000000000000000000000006001600160a01b03168460405160006040518083038185875af1925050503d806000811461068f576040519150601f19603f3d011682016040523d82523d6000602084013e610694565b606091505b50509050806106f45760405162461bcd60e51b815260206004820152602660248201527f496e6e6f76436861696e3a20756e6976657273697479207472616e736665722060448201526519985a5b195960d21b6064820152608401610339565b60007f00000000000000000000000000000000000000000000000000000000000000006001600160a01b03168460405160006040518083038185875af1925050503d8060008114610761576040519150601f19603f3d011682016040523d82523d6000602084013e610766565b606091505b50509050806107c35760405162461bcd60e51b8152602060048201526024808201527f496e6e6f76436861696e3a20706c6174666f726d207472616e736665722066616044820152631a5b195960e21b6064820152608401610339565b50505050505050565b60005460ff161561081f5760405162461bcd60e51b815260206004820152601a60248201527f496e6e6f76436861696e3a20616c72656164792066756e6465640000000000006044820152606401610339565b336001600160a01b037f000000000000000000000000000000000000000000000000000000000000000016146108aa5760405162461bcd60e51b815260206004820152602a60248201527f496e6e6f76436861696e3a206f6e6c79206c6963656e73656520636f6d70616e6044820152691e481b585e48199d5b9960b21b6064820152608401610339565b7f000000000000000000000000000000000000000000000000000000000000000034146109195760405162461bcd60e51b815260206004820152601c60248201527f496e6e6f76436861696e3a20696e636f727265637420616d6f756e74000000006044820152606401610339565b6000805460ff1916600117905560405133907f5af8184bef8e4b45eb9f6ed7734d04da38ced226495548f46e0c8ff8d7d9a5249061095a9034815260200190565b60405180910390a2565b634e487b7160e01b600052601160045260246000fd5b808202811582820484141761099157610991610964565b92915050565b6000826109b457634e487b7160e01b600052601260045260246000fd5b500490565b818103818111156109915761099161096456fea26469706673582212205aa9bbd839000118685dd021327ab886540715e5ae77db46c11bf17d59d5839964736f6c63430008180033",
  "linkReferences": {},
  "deployedLinkReferences": {}
}